:020000020000FC
:100000000C9448000C9447020C9447020C94DD01B8
:10001000010040D20000000062952F6A4A295BABC4
:10002000F9C1FBC1FDC1FFC1EEC0E4C0ECC5EDC527
:10003000FFC1FCC104C2B2C3B7C33CC43FC4C8C300
:10004000D2C3D9C36CC445C453C4BCC3B1C3B5C3C4
:10005000E5C413C207C20CC255C35AC365C366C305
:100060006EC37AC391C395C3A0C403C10AC197C428
:10007000CAC3D4C3B0C3F0C4F9C40BC5E1C6E4C657
:10008000E6C6E8C6EDC6FBC60BC7C1C1BEC0EEC022
:10009000F8942224E7E2F9E6EDBFFEBFE8EDF7E0D1
:1000A000E4BFF0930001A895E8EDF4E2E4BFF0931B
:1000B0006800E0914000E0934000EFBBE8EDE4BF52
:1000C000209201102BBE4F98479AE8EDF0E6E4BF6E
:1000D000F0931001E0914101E211FCCF2092480120
:1000E00020924901E1E0E0934001E0E1E093E20584
:1000F000EFE0E093E405E8E0E093B504E093B604B4
:10010000E0931104E0931004E0E0F8E02682A0EC14
:10011000B0E0A087B187A0E8A583A3E0A783A2EC05
:10012000A683A6980198AD9A089AA59A009AF89B7A
:10013000FB9967D05DD0439A039A029A639A649AB6
:10014000659A479A479A479AF89B06C0E0E0F0E61E
:10015000AFEFA193F836E8F3E0ECF8E6FB99E0E4C2
:10016000FB99F8E6F899E0E0F899F8E62192F03882
:10017000E8F3E0914801F0914901F230D0F3E2E078
:1001800039D03DD0B69B0FC0BCD2C2E039D5E0918A
:100190000090EF3F11F0E1D419F07FD4DED409F4E0
:1001A00089C1E1E06AC162D0E0E0FAE02082218208
:1001B00022822382AFE0A083E0E0FBE02082218264
:1001C000AEE6B1E0A487B587A1E0A583A5E0A08352
:1001D000E2D2E7D2789408D012D0C2E608D58FB325
:1001E0009927E0E00FD26BC0E0E004C0EFEF02C05F
:1001F000E1E000C0E0FF4B98E0FD4B9A0895E0E09D
:1002000002C0E3E000C0F3E000C0F0FF04C0E0FD86
:100210000B9AE0FF0B98F1FF04C0E1FD0A9AE1FFA1
:100220000A98F2FF04C0E2FD6B9AE2FF6B98F3FFBD
:1002300004C0E3FD6C9AE3FF6C98F4FF04C0E4FD96
:100240006D9AE4FF6D98F5FF04C0E5FD4F9AE5FF58
:100250004F98F6FF04C0E6FD4F9AE6FF4F98F7FF70
:1002600004C0E7FD4F9AE7FF4F980895E0E0FCEFE8
:10027000CCCFF894E8EDF1E0E0933400F093410046
:10028000FFCFF894A895E8EDE4BFE1E0E09300012A
:10029000FFCFCDD316D39681C1D30C92BED3CCC39E
:1002A000C6D3BBD39781BAD30CD309901C9001104D
:1002B0000C9211960197C9F7B0D3BED30895E7E227
:1002C000F9E6EDBFFEBF222734E0EEE29BD1C091FC
:1002D000006996D43CD1203491F324FD10C026FF50
:1002E000F9CFEEE7F3E0059000160590159019F4AC
:1002F000F0010995E4CFEA3BB1F720FFEBCF0034E2
:1003000049F7622F6370613029F720620DD17A3B83
:1003100021F46432A1F62061DDCF24FFD0CF7B3BF6
:1003200039F4693060F6C62F6BD4246031E0D2CF47
:100330007C3B21F422FFC3CF98D1CCCF7F3B51F639
:10034000603011F40AD0BBCF613009F40AD0B7CFC6
:1003500068E08BC1C02F4BD4B2CF87D3E4EE52D12B
:10036000AECF9BD3E2EF4ED1AACF0053E1E00A9586
:1003700012F0EE0FFCCFFEB3FE27FEBB089530B5A2
:100380000131B50132B50133B50134B50135B501DF
:1003900036B50137B50153500252370264A80161E6
:1003A000AA0162AA0163AA0165AA0166AA0173AA49
:1003B0000175AA016CAA01005F01EFB64F01E0913F
:1003C0000408E7FF13C0E72DE619E03C23FF08F01F
:1003D000AD9AE0910108E2FD82C0F0E7E72D709050
:1003E000000871927E2EF401EFBE1895E091060B85
:1003F000E093060B761411F442104A943A9422F4D6
:10040000332EE8E0E0934704F401EFBE1895E0E0F6
:10041000F0E00895EDE0F0E00895E0E4F2ED0895F5
:10042000E1E0F0E00895E0E4F2ED089503D0EDC3DB
:1004300001D0E9C3AFE0B0E0C0E1D1E10895F8DF59
:10044000A193B193C193D193F1DFA193B193C193E0
:10045000D1930895DFEF672C94D06710FBCF2197DD
:10046000D9F7089517D048F00895EBE001C0EAE00D
:10047000CADE2092480120924901A895F894AD98CF
:10048000F0E208D0E8F7BFDEF0E404D0E8F7ACDE35
:10049000B6DEEFCE0090480100904901F0150895B6
:1004A000C0910069ADD359D3C9F4CF3411F0CB3426
:1004B000A9F4D0DF209205082092000A2092000BB8
:1004C0002092050B209248012092490193D1FE0110
:1004D000E050F048F695E795F8940994FBCEF8942F
:1004E00020920608AD98E8E085DEE5E58CDEEFEFCA
:1004F000A89500C000C000C0E211EA95119BF8CF9A
:10050000E211F5CFC4CF8E2F99277DDEE8E072DEB1
:10051000EAEA78D0F0910900E2E0F3FDEAE06ADE71
:1005200032E0672C2ED0F6CF04D0702F02D0602F8F
:10053000089507D002950F9304D00F900029F00E74
:10054000089505D00F7D075308F4095D089519D06B
:10055000421002C025FDB3CE7614C9F3F0E7E62DB4
:1005600000816394206442102F7B26FD2F7EFBE0E8
:100570004F2E21FF23950A3011F00D3009F42C7F06
:1005800000C00F01A89523FD06C0E72DE619E03253
:1005900018F4AD9801C0AD9AF0010895019101D011
:1005A00003C00F93029501C00F930F70005D0A33D3
:1005B00008F0095F1BD00F910895092FF0DF082F75
:1005C000EECF0AE013D00DE011C0E0E0F1E1E6DF8C
:1005D000E5DFE4DF0EE20AD029DFCE01EEDFCD0158
:1005E000ECDF26DFCE01E9DFCD01E7CFD8E1C9DFBF
:1005F0000090040805FEFBCF2197B699C1F7009340
:1006000002080895E0930169FDE0E0910169059118
:100610000DBBE0930169002391F012F0E7DFF4CF06
:10062000E9990ED0EA9911D0EB991AD0EC99CDDF67
:10063000EE9913D0ED99B4D2E899C3DFE5CF0895D0
:10064000C591E0930169DCD292C2009000691090DC
:1006500031690AE210100895C9CF09E0C7DF89C2E5
:10066000EC9BABCFEC980EB39ACF6CBBE099BCD2AD
:10067000E19907D0E3999CD2E6991CCFE799F5CE92
:10068000089517D1B7D0C0930269D09303695FDF93
:1006900020FFFDCF0A33D9F74CDF502EF02E44DF78
:1006A000C0910269D0910369C60FD71F42DF0030A5
:1006B00031F00130F1F0023069F0E4E024CFFDD0F8
:1006C00008945208A0F02AD1E5E0C8F032DF802F6C
:1006D0000ED1F6CF29DF660F771F660F771F660FE3
:1006E000771F660F771F609302697093036903D0C9
:1006F000CECF5AD100C01DDFF21411F0E6E003CFD7
:100700000895BBD0C6E8D3E049D04EC0A89508955F
:10071000C487D5870895C93008F0C9E0DCE0CD9FD3
:10072000E001CE51D5470895F6DFADC0C083D18337
:10073000C48BD58BCA0FDB1FC283D3830895A68FCA
:10074000A895C28FD38FD5D020F0C28DD38D21979D
:10075000B9F70895AA27BB27C48FD58FEC8FFD8FDB
:10076000A895A28FB38FC48DD58DFE01B2D048F06D
:10077000C48DD58DFE01BCD020F0A28DB38D119714
:1007800079F708958FEF79D0868FA895B2D0E8F7E2
:100790000CC1FADF76CD71D0C1E2D5E0C68BD78B24
:1007A00008956BD0CAE2D5E0C08FD18F089565D08F
:1007B00081D00ED018D027C260D07CD009D013D001
:1007C00024C25BD0F5DF02841384C015D1050895DF
:1007D000C489D5890895C489D58900801180C0193C
:1007E000D10908954AD0A281B38104881588A0193F
:1007F000B109089542D0C081D18108953ED0C2810F
:10080000D38108953AD000801180C281D381C0196C
:10081000D10909F021960024021C08957CDFFE0115
:1008200000801180C281D381F2CF0C2ECEEEDAE8A7
:100830001884101419F02C96CE34D1F70895DCE00A
:10084000CD9FE001CE51D5470895CE01CEEEDAE836
:10085000088019808015910530F00A801B80801572
:10086000910531F028F02C96CE3491F70894089534
:1008700088940895A0E0B1E70895E8E2F9E60895C4
:10088000FCDFA487B5878CE0099001928A95E1F797
:100890003C97C481D5812197C095D095C28BD38BCD
:1008A000C081D181C687D787C08BD18B278E02D0DC
:1008B0007EC0E3DFC081D18101C0DFDFC48BD58B77
:1008C000089584819581A685B785C485D5850895C9
:1008D000D4DF25D038F0C489D58950D020F0899153
:1008E000C48BD58B089521968FEF0894F9CFC5DF7F
:1008F000868F15D090F053D0C481D5812197A489DB
:10090000B589CA23DB231196A48BB58BA485B58545
:10091000CA0FDB1F868D888388940895AEDF048814
:100920001080011405881180010440F004881280B1
:10093000011405881380010419F010F0089408953B
:10094000889408959ADFC489D589A685B785CA1782
:10095000DB0730F0A089B189CA17DB0719F010F066
:10096000089408958894089588DFC685D78506D0B1
:10097000A78DAE7F08F4A160A78F0895C034B0E1C1
:10098000DB0748F0D63148F0D03628F0D03828F0D0
:10099000D03908F002C00894089588940895D3DFF0
:1009A00010F403D004D0089568DF2BD026C0C4898A
:1009B000D58902881388C021D121C687D787848131
:1009C0009581C80FD91F2197C08BD18BCEDF40F006
:1009D000A685B785C485D5850D9009920197E1F765
:1009E0000895078C00FC07C06CDF09901D9001146E
:1009F00019F40197D1F718940895F3DF09F050CC5A
:100A00000895078C00FC08955CDF09901D9010206C
:100A100001103FCC0197C9F7089590E08091021032
:100A20008370E1F78DE984BF9093001008950688E4
:100A30000F9207880F920895008C0F92018C0F92ED
:100A400008952860AD9AFF93F4E69BDDFA95E9F7E7
:100A5000FF910895277F95CDC2E066DE80E1809307
:100A60000110B0DE20920110089507DFEF01DFDFF3
:100A70002DD069F09BE0D2DFE895CFDF92E0CEDFAA
:100A800000801180E8953296F03AD1F7C6DFFE017A
:100A9000D3CFC2E049DE02D0F4CBEFDEFF93EF9379
:100AA000C6DFDADF81F412D071F094919F3F59F0E4
:100AB0009BE0B4DF0082B1DF92E0B0DF04900192EE
:100AC000F03AE1F7AADFEF91FF91B6CFE0E0F0E96D
:100AD00094918191891711F4F03AD1F7E0E0F0E9AF
:100AE00008950000FFFF010000002D00000000A09D
:100AF000FFFF0002080266014FD20090FF9F000234
:100B0000080262024BD20014FF150100181265039F
:100B10004ED280109F102000080263044CD20011B6
:100B20001F11010000007305000050105810010053
:100B30000000750600000060FF670002000061070A
:100B40004AD240104F10010000006C080000001154
:100B50000011010000002D09000033DEA09304699C
:100B6000B0930569C0930669D09307690895F5DFCE
:100B700006C0E0E1E0930110F0DF20920110E4ED07
:100B800009F4EAED0ED0909107698091066915DDB0
:100B9000909105698091046910DD02C0E4ED01C007
:100BA000E0EEFDE00591002311F020DDFBCF08957C
:100BB00008DD7FDEF3DF61DE8489958900E1080FBF
:100BC000090FF02EE6E91EDD83DE38F0082FF00E67
:100BD000E6DC53DE04890F70B9F7E0DFF1940F2DE6
:100BE000DEDC9CDE40F7089564DECCDDDDCE05D092
:100BF0000091316900930069089517DE3BDE40CE15
:100C00001EDE38DE3DCEE89404C06894CA0FDB1FB8
:100C100000C0EF93FF936FEF7FEFCB01FF27A89505
:100C20000EF019900EF41A9008941794062E0F1EC9
:100C3000969587957795679500FE08C0EDEE9E27FF
:100C4000E8EB8E27E3E87E27E0E26E27169471F743
:100C5000119728F790958095709560950E01DB01AE
:100C6000EC018623872389238095FF91EF910895D6
:100D0000A1811B5B34316D2E2E2E5B524553455411
:100D10002D885DA11B5B34346D2E2E2E5B524F4D02
:100D20002E4D4F422E4E454D3635315D2000A1816E
:100D30004944205B905D814C3A208708523A201B41
:100D40005B33326D4432345230303031A1533A206B
:100D50008705553A20870681413A208707423A2085
:100D6000C702433A208704453A208703463A208742
:100D70000181524F4D205B987C527C537C645D20F6
:100D80002D205B617C627C637C657C667C6C7C7303
:100D90007C755D3E2000813A31301B5B39346DA893
:100DA0001B5B39306D3030A0000081811B5B343516
:100DB0006D2E2E2E5B4572726F722023885DA020EF
:100DC0002D203C627265616B3E20746F20726573EA
:100DD000756D65001B5B39306D001B5B33326D0038
:100DE0001B5B6D00A1811B5B34346D5B532D3E5D3D
:100DF0000000A1811B5B34346D5B3C2D525D000013
:100E0000ACAAA9A5A3A69C9A999593968E8D8BB111
:100E1000B2B4B874726C6A696563665C5A595553AA
:100E2000564E4D4B4771E8E4E2D1C9C5D8D4D2CA79
:100E3000C6CC78171B1D1E2E363A272B2D3539337D
:100E40001ED00ED01CD00CC00BD019D009C017D0AA
:100E500007D015C005D0E991EF73E081ED930895B7
:100E6000E991EF70F881FF0FEE1FFF0FEE1FFEE814
:100E7000E081ED93E991EF73E081ED930895FEE851
:100E8000E881E695E695E081ED93E991E370E295DE
:100E9000F881F07FF295EF2BFEE8E081ED93089565
:100EA000FEE8E881E081ED930895FFFFFFFFFFFF7B
:100F0000005EBCE2613FDD83C29C7E20A3FD1F41E9
:100F10009DC3217FFCA2401E5F01E3BD3E6082DCD9
:100F2000237D9FC1421CFEA0E1BF5D0380DE3C62C9
:100F3000BEE0025CDF81633D7C22C09E1D43A1FFB9
:100F40004618FAA427799BC584DA3866E5BB5907A9
:100F5000DB856739BAE406581947A5FB7826C49A99
:100F6000653BD987045AB8E6A7F91B45C6987A2489
:100F7000F8A6441A99C7257B3A6486D85B05E7B979
:100F80008CD2306EEDB3510F4E10F2AC2F7193CD69
:100F9000114FADF3702ECC92D38D6F31B2EC0E5059
:100FA000AFF1134DCE90722C6D33D18F0C52B0EE49
:100FB000326C8ED0530DEFB1F0AE4C1291CF2D7339
:100FC000CA947628ABF517490856B4EA6937D58B29
:100FD0005709EBB536688AD495CB2977F4AA481619
:100FE000E9B7550B88D6346A2B7597C94A14F6A809
:100FF000742AC896154BA9F7B6E80A54D7896B35F9
:1010000087C0FFCFFFC7FFCFFFC7FFCFFFC7FFCF0F
:10101000FFC7FFCFFFC7FFCFFFC7FFCFFFC7FFCF80
:10102000FFC7FFCFFFC7FFCFFFC7FFCFFFC7FFCF70
:10103000FFC7FFCFFFC7FFCFFFC7FFCFFFC7FFCF60
:10104000FFC7FFCFFFC7FFCFFFC7FFCFFFC7FFCF50
:10105000FFC7FFCFFFC7FFCFFFC7FFCFFFC7FFCF40
:10106000FFC7FFCFFFC7FFCFFFC7FFCFFFC7FFCF30
:10107000FFC7FFCFFFC7FFCFFFC7FFCFFFC7FFCF20
:10108000FFC7FFCFFFC7FFCFFFC7FFCFFFC7FFCF10
:10109000FFC7FFCFFFC7FFCFFFC7FFCFFFC7FFCF00
:1010A000FFC7FFCFFFC7FFCFFFC7FFCFFFC7FFCFF0
:1010B000FFC7FFCFFFC7FFCFFFC7FFCFFFC7FFCFE0
:1010C000FFC7FFCFFFC7FFCFFFC7FFCFFFC7FFCFD0
:1010D000FFC7FFCFFFC7FFCFFFC7FFCFFFC7FFCFC0
:1010E000FFC7FFCFFFC7FFCFFFC7FFCFFFC7FFCFB0
:1010F000FFC7FFCFFFC7FFCFFFC7FFCFFFC7FFCFA0
:1011000001004BD20100000062952F6A6DCAB23F08
:10111000A895F8942224E8EDE4BF20921001E8EDB0
:10112000F1E0E4BFF0936200EFE1F9E6EDBFFEBF4E
:10113000E0E0F9E6C0E0DAE021922197E9F7CAD4CD
:1011400009F0CDD4D9D409F0DCD4EFB3E093026830
:10115000E0910468E395F999E0930468E0910368ED
:10116000E395FB99E0930368E0910068F0910168D2
:101170003196E0930068F0930168A7D44F98479A9E
:10118000AC9AA49AE0E4F8E02682A0E8B1E0A08757
:10119000B1872582A3E0A783A0E4A683A9E0A0935A
:1011A000000A2092200A2092210AA1E0A093000BBD
:1011B0002092010BAFEFA0930C0BA0930D0B20928C
:1011C00052042092B3044298A398BFD4E1D4E3D44C
:1011D0003CD452D5E0917F68E21175C0E09150682F
:1011E000E21124C370C00C9410000C9411000C94F4
:1011F00012000C9413000C9414000C9415000C9421
:1012000016000C9417000C9418000C9419000C9400
:101210001A000C941B000C941C000C941D000C94E0
:101220001E000C941F000C9420000C9421000C94C0
:1012300022000C9423000C9424000C9425000C94A0
:1012400026000C9427000C9428000C9429000C9480
:101250002A000C942B000C942C000C942D000C9460
:101260002E000C942F000C9430000C9431000C9440
:1012700032000C9433000C9434000C9435000C9420
:1012800036000C9437000C9438000C9439000C9400
:101290003A000C943B000C943C000C943D000C94E0
:1012A0003E000C943F000C9440000C9441000C94C0
:1012B00042000C9443000C9444000C9445000C94A0
:1012C00046000C944700C0E4D8E68DDFF993E9931B
:1012D0008CDFF993E99397DFE4E4F8E6D193C193C7
:1012E000B193A193A0914768AF77A1602092506914
:1012F000A09351692DD3A0910091B0910191B88331
:10130000A983AFEFBFEFE09102A1EF3441F4E09188
:1013100003A1E23D21F4A09100A1B09101A1BA8303
:10132000AB832C821BD3288229822A822B822C8297
:1013300018D3E0E0F1E9A081B181B883A9839BB71C
:1013400081E08BBFA081B1819BBFBA83AB832C822C
:10135000E8EEF3E0E0932369F09324690091FE1531
:101360004427E0914468E093256921E0B5C180E518
:1013700064D49091366980E0FA81943081F08B8159
:10138000953069F031FD91C18D81983009F091C19E
:10139000EA81E0932068EB81E0932168FC81F0937F
:1013A0002268209223692092246973D123E099C294
:1013B0000CD284E442D48E8180934A688F818093DA
:1013C0004B688885809348688985809349688A85B9
:1013D00060D127E08AC2FED180E72FD427E091C2F6
:1013E000F9D181E42AD4909136699D3080E090E073
:1013F00011F09B858C8590934E6880934F6888850B
:1014000080934C68898580934D688A8582FD14D2CB
:1014100083708093506828E081D280915068821157
:10142000FED15AC190913669953011F0983011F47F
:10143000EA8116C0973011F09A3019F4D0D1EC81BE
:101440000FC0993011F09C3019F4BFD1EE8108C063
:101450009B3011F09E3019F4BDD1E88501C029C13F
:10146000EC3080F4F0E0EA5CF54F0994E3C0E3C0AF
:10147000E4C0E4C0E3C0E2C0E5C0E5C0EBC0F1C039
:10148000F9C0FEC029C1ABD182E4D7D38C8180934F
:10149000A46B38854985823011F430FD1DC128E1E7
:1014A000E19A30FD3FD230FF40D2C7E0E4E8FBE6EE
:1014B000D6DEC091A46BEFD1D2DEE8D08E819F81C1
:1014C000E3D1EDEEDE2EE8EBCE2EE3E8BE2EE0E239
:1014D000AE2EEFEF9E2E8E2E7E2E6E2EC2D1FCC033
:1014E0007ED183E4AAD30C8009140D8008040E80F9
:1014F00007040F80060428E211F428E4B2D1DFC10A
:101500006ED182E59AD328E7B7D1E0C168D184E5EE
:1015100094D328E5DBC163D185E48FD328E03E7FF7
:101520004427CDC15CD186E488D3B5D1909136698A
:10153000963019F08C8130FD9ADE30FD9CDECCC0F7
:1015400030FDB1C090913669933009F405C09530F3
:1015500011F445D101C0ADC082E76FD39CD169DEE3
:101560008093486911D065DE809349690DD061DEB2
:1015700080934A6909D05DDE80934B6905D09295CE
:10158000909590934C69FAC1991F90FD0895089425
:10159000879584D18695E9F7089530FF84C09091AE
:1015A0003669933009F422C0953011F418D11EC069
:1015B0009B3011F4229606C09D3019F410D1249668
:1015C00001C077C087E739D378E0699108946795BF
:1015D00065D16695E9F77A95C1F7A8E0B0E028975C
:1015E000E4E8FBE63EDEA8E0B0E01BC0CFD081F42B
:1015F00078F0A0E0B2E760E8C9D011F4E8F748F06D
:101600008FB74CD18FBF6795B8F76D93A13898F31A
:1016100063C0A050B247C0E0D2E7E4E8FBE621DEB9
:1016200000C0C4E8DBE637D130FD1FDE30FD29DE27
:1016300053C052C05FC15DD122CE5CC15AD1EFD040
:1016400002E04AC05BC19E3009F046C056D123D1AA
:1016500024DE42C09E3009F03FC04FD11CD11BDEBA
:101660003BC047D1C1E001D2CF3419F4D23D09F4D7
:10167000C8D405CE3ED1C1E00ED1F1DD8FEFF9CD5A
:1016800038D1C3E008D1EBDD8FEFF3CDC6E2D9E668
:10169000089590910A0B982392111EC0089584E436
:1016A0000CC082E50AC08DE408C083E406C085E46E
:1016B00004C08CE402C084E500C0BFD20DC0C0915C
:1016C0002369D0912469219738F0C0932369D0937E
:1016D000246911F4B1D0B3CFEFE1F9E6EDBFFEBF5D
:1016E0005ED291D2AFD02CBA6AE050D01130A1F7BF
:1016F0006A95D9F74BD081F7E8F3913808F4309424
:10170000C5DF7727EE2761E041D0A9F6661FE0F735
:1017100069937627C63368F639D069F620F0E62754
:10172000FFE8E081F0CF7211C2CFE09337693D7FCF
:10173000E2113260C652C0933669A8DFE881ED3FFE
:1017400069F000FD7CCFF981EF2BEA81EF2B29F4C2
:10175000E0913669E33009F472CFB1CF6981603F1F
:1017600008F4BACF6F70E4ECF9E9660F660FE60F84
:10177000F21D0190022209F496CF019000FE02C0F2
:1017800031FD93CF01901080F0010994A8951127A5
:101790000AB0032402FEFCCF9091200A2092200A76
:1017A0002092210A0AB0032402FCFCCF8091200A77
:1017B0002092200A2092210A8D31111F813810FDBC
:1017C0008F30111F012E06940895E0E4F8E684E0BE
:1017D0001DD00CC0E4E4F8E686E018D007C00FD0B6
:1017E00029F00AD019F005D009F00CD0821174CF7D
:1017F0000895EAE4F8E609C0E8E4F8E606C0ECE497
:10180000F8E603C0EEE4F8E600C082E0DE011296DE
:1018100001901D90011411F48A95D1F70895C1E04B
:1018200024D1CF3411F4D23D09F00895ECD1E091E8
:1018300005A1E0FD01D0E4C3E8EDE4BFE5E8E093F5
:1018400001100895F0E44211F0E1E0914801E091C7
:101850004901EF23E21103C000C077D18AC179D1D9
:101860008EC117D00E0112DF6A8A7B8A8C8A9D8A0C
:101870000F8A188E298E089509DF6A887B888C88E4
:101880009D888F89988D00C006D0CFDCC80FD91FE6
:10189000C6CC01D0FCCCE4E6FBE6089530F096948B
:1018A00087947794679430F009C0969487947794DE
:1018B000679420F09D248C247B246A24089554D0BE
:1018C000988289827A826B822C8259C0E2DFDE01A3
:1018D0008091A46B49D088832982BA83AB832C8200
:1018E0004EC0E0E4F8E692E045C0E4E4F8E690E0BB
:1018F00041C0E19A33D024D042C0E19A32D020D006
:101900003EC029D03CC0E19A32D0ED01ECE3E8833F
:10191000E983EA83EB83EC83ED8334C0E19A18D04A
:101920000FD02DC0C4E0DAE92AC0C091A46BADDCB1
:10193000DE011AD00882B983AA832B822C821FC0B1
:10194000E0910110E470FC81FB7FFE2BFC83089585
:10195000C5E5D9E60895C0E5D9E60895CAE5D9E612
:101960000895CFE5D9E60895C8E4D9E60895A0E43E
:10197000B9E60895F9DF84E05AD09883F5DFF7DF00
:1019800092DC00C097E712D09DEA10D0F0DF86E02D
:101990009091440895FFFCCF9D91909342088A95C1
:1019A000B9F78AE24AD1E19B97CE08950090200AC8
:1019B0000916E0F32092200A2092210A529BB39943
:1019C00070CE08950100B7090201D8090401EB099E
:1019D0000401F0090000190B0000190B0000190B9D
:1019E000FF01120A0801430A7001700A2001800AEF
:1019F0004001860A10018B0A1001920A1000A00A09
:101A00001000CD0A02003214FFFFF89468D0F89459
:101A100078D00C943D09F89458D069D00C943D09C5
:101A20000E94A90DF894A895FFCF0C943F0901904E
:101A300009928A95E1F7089529928A95E9F7089520
:101A400020822182228223820895E4E8FBE60E941C
:101A50002B09C4E6D9E60E942D09E4E6FBE60E94C4
:101A60002B09C4E6D9E60C942D09E4E8FBE60E94B4
:101A70002F090C941F091FD005FE0EC001800DC058
:101A80001AD006FE09C001800AC015D007FE04C0A6
:101A9000018007C010D039F00895000C111C000C13
:101AA000111C000C111C10820FB6F89421822282A6
:101AB00023820FBE08951180100C11821280121C17
:101AC00012820380039403820895C0E0D8E6AAE15D
:101AD000B0E01FC0C0E0D8E6AEE1B0E027C0C0E093
:101AE000D8E680E4A9DFEFEFE0931F680895C0E433
:101AF000D8E6AAE3B0E00DC0C0E4D8E6AEE3B0E0BB
:101B000015C0C0E4D8E680E897DFEFEFE0937F6888
:101B100008950E94FF08F001A095B095C095D0955A
:101B2000A083B183C283D383248208950E94FF08D7
:101B3000F00180830895E2E0F2E000C0EF23F09529
:101B4000009020690F22E02906C0E0E004C0EFEF1A
:101B500002C0E1E000C0E093206900C0E09120698C
:101B60000C94FD08EF23F095009021690F22E029E5
:101B700008C0E0E006C0E5E504C0EFEF02C0E3E026
:101B800000C0E093216900C0E09121690C94FB083A
:101B9000442455240895AD980895AD9A0895B699B2
:101BA00004C0E5E5119B0C94290900C0E0910408EC
:101BB000E7FF0895E0910008E0930070089502D0D7
:101BC0008CE23BC001D003C08F93829501C08F93FC
:101BD0008F70805D8A3308F0895F2FD08F910895D0
:101BE0008AE02BD08DE029C00F01451451F0F0910F
:101BF0000408F5FF06C0F1E7E52DF081F093020837
:101C00005394F0010895451459F0F0910408F5FF3C
:101C1000FACFF1E7E52DF081F09302085394F3CF6A
:101C20000895C42DD1E70190002029F00882C395C2
:101C3000C511F9CFCA954C2ED8CF0F01F201FA95F4
:101C4000EF1719F0F1E780834394CFCF8F938E2F56
:101C5000F201FA95EF1719F0F1E7808343948F9121
:101C600008958991ACDF9A95E1F7089589918211E1
:101C700088130895E2DFFACFCCE8DCE9F7DF809142
:101C80000268A0DFCCE9DCE9F1DFBDCF0A0D1B5B08
:101C900034346D2E2E2E5B424C442D005D1B5B6D4B
:101CA0000A0D0000CCEADCE9E1DFADCF0A0D1B5BD9
:101CB00034336D2E2E2E5B5550445D1B5B6D0A0D2B
:101CC0000000FFFFFFFFFFFFFFFFFFFFFFFFFFFF22
:102000003CC1089581E084C082E082C083E080C04A
:10201000E8D0EBC085E07CC086E07AC087E078C07D
:1020200088E076C089E074C08AE072C08BE070C03E
:1020300072C000008EC000008EE06AC08FE068C0F1
:1020400080E166C081E164C082E162C083E160C07A
:1020500084E15EC085E15CC086E15AC0FBC000003F
:10206000C6C0000089E154C08AE152C08BE150C073
:102070008CE14EC08DE14CC08EE14AC08FE148C07A
:1020800080E246C081E244C082E242C0F0C000006B
:1020900084E23EC085E23CC086E23AC087E238C0B6
:1020A00088E236C089E234C08AE232C08BE230C0B6
:1020B0008CE22EC08DE22CC08EE22AC08FE228C0B6
:1020C00080E326C081E324C082E322C083E320C0F2
:1020D00084E31EC085E31CC086E31AC087E318C0F2
:1020E00088E316C089E314C08AE312C08BE310C0F2
:1020F0008CE30EC08DE30CC08EE30AC08FE308C0F2
:1021000001004FD20201000062952F6A4636AF1FD0
:10211000A89517D2FFCF0FB73F014001E091896A20
:10212000E395EF3008F0EE27E093896AF0E0E65699
:10213000FF4E099468C278C27DC294C222C324C3F0
:1021400026C328C32AC32CC32EC330C333C337C30B
:102150003EC3E89B06C0E89820921301C092420853
:102160001895FF93EF93EFB7EF93DF93CF93BF9360
:10217000AF93E0911C0BF0911D0BA091C669B0913B
:10218000C769E093C669F093C769EA1BE093C86921
:10219000FB0BF093C9696894B2E0E037FB0708F4E1
:1021A000ED9AB3E0EC30FB0730F0E894B4E0E833AC
:1021B000FB0708F4ED9AF091140BE0E1A091E169BE
:1021C000EE9BFE27EE98E3E0A211E5E0E0934102EA
:1021D000F093140BEFEFE093160BE091CA69F4E271
:1021E000099401E00093530118950C94C02D3F0110
:1021F000E091816AF091826A00911006019300914A
:1022000011060083E091836AF091846A0191009342
:102210000C060191009308060191009309060191B3
:102220000093000601910093010601910093A00024
:1022300001910093816A01910093826A0191009358
:102240000B06019100930A06E093836AF093846A77
:10225000F301189500E3009386060091870600932A
:10226000870604FF189504E00093556A18950FB788
:102270002092031021600FBF1895A895F89422248E
:102280002DBAE8EDE4BFE5E8E0930110EFE1F9E6EF
:10229000EDBFFEBFE0E0F9E6C8E6D9E02192219764
:1022A000E9F720920508A2E4A0931202ABE4A09300
:1022B0001402A3E0A0934102A8E0A0935704A4E075
:1022C000A0937104A0937704A093B104A093150484
:1022D000A09314040D98059A0C98049A4F9A479865
:1022E0004F98479A4798A198699A6F9A619867980A
:1022F000A4E0A0937204A0937004A093B004A0E0A3
:10230000A093E605A1E0A093030AA1E0A093000A30
:10231000E0E0FBE02082218222862386A0EEBEE25E
:102320002486B587A1E0A683A1E0A583A3E0A083CE
:10233000E0E1FBE02082A2E0A183A1E4A483A1E08C
:10234000A683A583A3E0A083A3E0A0932002A5E039
:10235000A0932102B8EDA1E0A093C001A3E4B4BF13
:10236000A093C901AEEEB4BFA093CB01A1E0B4BF6E
:10237000A093C801A0E1A0931102E0E8FBE0A2E075
:10238000A0934902A0934A02A4E0A08BA18BA1E8EC
:10239000A087A187E0E8FBE0B8EDA0E0A183A0E082
:1023A000A283A3E3B4BFA28BAFEFA2A723A6A6A7E5
:1023B00027A6A0A7A1A7A4A7A5A7A685A0FFFDCF94
:1023C000C0910614A1E0C13009F4A3E0C23009F4C1
:1023D000A9E0C33009F4ABE0B4BFA083A0915101E0
:1023E000A0FDFCCFA9E1A0935001A1E0A09353016F
:1023F000A0935201A5E8A093A000A5E0A093A4009B
:10240000A5E0A093A200E0E0F6E0A1E1A083A0E0B7
:10241000A183ABE0A283A0E0A383A0E0A483A2E019
:10242000A0930506A7E0A087A1E0A187AFEFA09346
:102430008506A3E0A0938206A1E3A0938606A7E108
:10244000A0938006A4E0A0937604A1E4A093A00644
:10245000A4E72092A206A093A3060E94932FE8ED82
:10246000E4BFE8E0E09300010E94BE1F0E94252324
:102470000E94882F0E94882F0E94992A0E94FB2A7E
:102480007FD01FD50E946C1B61D70E94DE2C0E945A
:102490008D260E94362D0E94882FE1E0E09350683F
:1024A000CCD3EFEFE093060BE093160BE0935301D0
:1024B000E09304100C944F2D08950C943C1CE0E024
:1024C00006C0E79904C000C0E49924C019C0E4998B
:1024D0000CC000C0E095E093A80B2092A90BEFEF91
:1024E000E093AC0BE093AD0B1FC0E095E093AC0B19
:1024F0002092AD0BEFEFE093A80BE093A90B14C073
:10250000E093AC0B2092AD0BE0E0E093A80BE093DE
:10251000A90B0AC0E093A80B2092A90BE0E0E0937E
:10252000AC0BE093AD0B00C0EFEFE093AA0B209251
:10253000AB0BE093AE0B2092AF0BE1E0E093840B8A
:102540000895EFEF0E2EE0E8FBE000A601A604A63A
:1025500005A6EACFE0E00E2EE0E8FBE000A601A62B
:1025600004A605A6E1CFE0913170E1FF03C000C0F1
:10257000E0E001C0E1E8E093880BE093890B089567
:102580004F9A479A0E94B3122CBA8091317084FD01
:10259000E79A82FD15D082FF0FD0C0938A6AE0933C
:1025A0009368F0938C6AE0910268E1FF0DD0EEE849
:1025B000FBE6C0E6D2E7D3C2CBE0E9E0F0EC089559
:1025C000CFEFE9E0F8EF0895E0E0FE2FFF7729F084
:1025D000EA95FA9511F4E29A01C0E298E0939968BD
:1025E0000895E0919768EE230895E0910870E093D4
:1025F000A9680895E0919968E078E7CFECE0E0936E
:10260000896A08950895E1E0E093896A9ADFE49B7E
:102610006198E4996798E0910770F0E3EF9FE0EB31
:10262000F4E0E00DF11DE4C0E1E0E093896AE0EB45
:10263000F4E0DEC0E2E0E093896A61986798209256
:102640000506E19904C0E19AECE6FFED03C0E198CC
:10265000ECE9FFED0090317003FC78966CD3E0EB71
:10266000F4E0C6C0E09132700090317000FE05C009
:10267000F0919768EF0F08F4EFEFF0ECEF9FE09127
:10268000856AF091866AF7FF05C0F095E195FF4FE6
:10269000F7FDFFE7EE0FFF1FE0939568F093966854
:1026A000CF93C12DC095EC9FE12DFC9F0E0E121C07
:1026B00010F0000C111CCF91F12D08F4FFEFF093F6
:1026C0009468E0919768EE2351F0529902C0B39B51
:1026D0003BC0FE1BF093AE68A9F028F115C0209214
:1026E000946820929568209296682092AE68209215
:1026F000AA6820929268EFEFE093896AE0DEE4EF47
:10270000FBE076C0E89420C0E0919268E23008F0E7
:10271000EA95E0939268E091AA68E211EA95E09365
:10272000AA68E89411C0F0919368E0919268EF175D
:1027300008F4E395E0939268E091AA68E395E211CA
:10274000E093AA68689400C0619A679A1090AA689A
:10275000E0918C6A0EF0E19DE12DB3DEE09192688C
:10276000F0E0EC54FC4E099425C020C01CC018C0F9
:1027700014C010C00CC008C004C000C0F3E0EFEFEC
:1027800031C0F4E0EFEF2EC0F5E0EFEF2BC0F6E044
:10279000E0EF28C0F7E0ECED25C0F8E0E8EC22C05F
:1027A000F9E0E4EB1FC0FAE0ECE81CC0F0918A6AA3
:1027B000EFEF18C0E0E08BDEFFEFEFEF13C0EDE0CE
:1027C000E093896AE0EF86DEEFEFFFEF11C0EFEFF5
:1027D000E093896AE0EF89DEEFEFFFEF09C0E09157
:1027E000AA686FCEF093896AFCE0EF9FF00100C009
:1027F000E0930C0BF0930D0BE1E0E093060B04016A
:10280000F3010FBF18959091377010903870191A16
:102810008FB780FD119400909768000C09F44CC0AC
:10282000019C80FD911980FF910D10903970919D50
:10283000000C111CE099812DE09B892FF894E09108
:102840009568F09196687894E89FE12DF99F0E0EB7
:10285000121C80E0881FEBE9F8E6A081B181C281FB
:10286000D381E09905C0A019B109C80BD20904C0F1
:10287000A00DB11DC81FD21DA083B183F894C283DF
:10288000D3837894A481B581C681D781A00DB11D71
:10289000C81FD21DA483B583C683D783A285B38501
:1028A000C485D585A019B109C80BD209A287B38701
:1028B000F894C487D5877894C0919A68D091586A63
:1028C000E0919868F0919968CF019827E89497FD76
:1028D000689497FDF078CF018F779F77E299CC27A6
:1028E000923010F0D2FD9695A091A26BAC7011F0D1
:1028F0009927F078891721F49030A9F0891789F089
:1029000040F0D5FDC0E0C15078F4C0910370EA9565
:102910000BC0D4FDC0E0C15038F4C0910270E39503
:1029200003C0CC2701C0EF2FC0939A68E09398684A
:10293000E7FFE09AE7FDE098EF77E093976809F00A
:10294000E2E00EF4E061F091E169F0FDE460E09B0B
:10295000F095F0FFE860809130709CB382FD909517
:1029600090FFE160FFE10E947A28F0E0E0FDF16075
:10297000E3FDF260E4FDF860F093A66B9CB381FD8B
:10298000909590FDE49A90FFE498E4E6F091AA68AF
:10299000FE9F000C121C1092AB680895EBE9F8E65C
:1029A0000580A681B781000CAA1FBB1F000CAA1FBF
:1029B000BB1F000CAA1FBB1F02101196F894A08722
:1029C000B18778942482258226822782B695A7959E
:1029D000CA2FEEE8FBE6D2D0ACEEAB9FA0913C70E4
:1029E000A19DD001D0E0AA0FBB1FDD1FAA0FB21D11
:1029F00008F4D1E0F894B093AC68D093AD687894C3
:102A0000E091A968E211EA95E093A968E211EE135A
:102A1000F1DD08952092816B0895E091816BE4309F
:102A200020F4F0E0EB5EFA4E099403C005C00DC03F
:102A300013C0E0915168C9CDE0917E6BF0917F6B3E
:102A40002AD0E091806BC1DD19C0CFDD2AD0E091A2
:102A5000806BE078BADD12C00895E0E012C06F70BC
:102A60007F78E62FA72FAA0FA7F9F0E0E0937E6BFF
:102A7000F0937F6BA093806BE1E003C0E091816BEA
:102A8000E395E093816B0895E091816BE03009F06C
:102A9000E3300895F0E00CD028822982EA83FB839A
:102AA000089506D00B8007FC08950F900F900895AD
:102AB000C5EAD8E6ACE7BBE60895F894B6D0F8943A
:102AC000C6D00C943B17F894A6D0B7D00C943B1703
:102AD0000E94972FF894A895FFCF0C943D17E770AC
:102AE000F0E0E651F545E081089501020408102068
:102AF0004080019009928A95E1F70895019019901C
:102B0000011411F48A95D1F7089529928A95E9F76D
:102B10000895208221822282238208959FEF999333
:102B20008A95E9F70895E0E0FFE80990E025E08163
:102B30008A95D9F7EE230895799FE001689FD00127
:102B4000699FB00DC11DD21D789FB00DC11DD21D52
:102B5000089580E406C080E204C080E102C088E0FD
:102B600000C0C083D1838283238224822582CDCF7B
:102B700011D00BC00FD007C00DD003C00BD0AA0FCF
:102B8000BB1FAA0FBB1FAA0FBB1FAA0FBB1FAA0FF9
:102B9000BB1F0895B381A081AB0FB181B21DDC9141
:102BA000CC93A481B581AD1BB209AC0FB21DA48337
:102BB000B583C281D381D395DC1708F0DD27D38399
:102BC00008951FD005FE0EC001800DC01AD006FE6C
:102BD00009C001800AC015D007FE04C0018007C0EB
:102BE00010D039F00895000C111C000C111C000CC1
:102BF000111C10820FB6F8942182228223820FBE0C
:102C000008951180100C11821280121C1282038010
:102C1000039403820895C0E0D8E6AAE1B0E01FC0A3
:102C2000C0E0D8E6AEE1B0E027C0C0E0D8E680E47E
:102C30006CDFEFEFE0931F680895C0E4D8E6AAE3E5
:102C4000B0E00DC0C0E4D8E6AEE3B0E015C0C0E42B
:102C5000D8E680E85ADFEFEFE0937F6808950E949E
:102C6000FD16F001A095B095C095D095A083B183D5
:102C7000C283D383248208950E94FD16F0018083CD
:102C80000895E0913B70E53008F0E2E0F0E0E65BAB
:102C9000F94E099426C023C00AC006C000C0809126
:102CA0008868209288681FC08091A26B1CC0909198
:102CB0009068923021F0943031F00FD023C00DD0C5
:102CC0001BD00BD01CC009D014D007D012D005D017
:102CD00016C00C944A2F0C944F2F01D0FCCFF9DF73
:102CE00005C0F9DF03C08211FACFFBCF82E390E089
:102CF0000CC084E690E009C088EC90E006C088EE45
:102D000093E003C082EE94E000C00C94E02EE091CA
:102D1000816AF091826AEF2B0895CF93C091816A06
:102D2000C21106C0C091826AC21102C0CF9103C015
:102D3000CF9188940895CF93C2E0C0930A06C1E072
:102D4000C0930D06C191C0930006C191C0930206C5
:102D5000C191C0930306C191C0930406C191C09371
:102D60000C06C191C0930806C191C0930906C19198
:102D7000C0930006C191C0930106C191C093A00009
:102D8000C191C093816AC191C093826AC191C0937D
:102D90000B06C191C0930A06E093836AF093846A9C
:102DA000CF91089408957695679576956795769571
:102DB0006795769567958091061190910711861B0E
:102DC000970B6091041170910511B6DEC695B79509
:102DD000C695B795C695B795C695B7957C2F6B2FB9
:102DE00008950C9410000C9411000C9412000C9493
:102DF00013000C9414000C9415000C9416000C9401
:102E000017000C9418000C9419000C941A000C94E0
:102E10001B000C941C000C941D000C941E000C94C0
:102E20001F000C9420000C9421000C9422000C94A0
:102E300023000C9424000C9425000C9426000C9480
:102E400027000C9428000C9429000C942A000C9460
:102E50002B000C942C000C942D000C942E000C9440
:102E60002F000C9430000C9431000C9432000C9420
:102E700033000C9434000C9435000C9436000C9400
:102E800037000C9438000C9439000C943A000C94E0
:102E90003B000C943C000C943D000C943E000C94C0
:102EA0003F000C9440000C9441000C9442000C94A0
:102EB00043000C9444000C9445000C9446000C9480
:102EC0004700C5D4EFE7E093946BE2E8FBE6C0E08F
:102ED000D2E741DEE8E8FBE6C0E2D2E73CCE089567
:102EE000E091E3692092E369E093E269E091E569AA
:102EF0002092E569E093E4690895F894E091286AE6
:102F00002092286A7894E03009F40895E43308F0B8
:102F1000D3CAC091266AD9E6EE56F0E0F84E09957C
:102F20000C94C617C9CAE9C012C116C1C6CAC4CA20
:102F3000C3CAC2CAC2CAC1CA3AC14EC16CC17AC1EF
:102F40008DC1A0C1B3C1C6C1D9C1ECC1B4C0B4CA9E
:102F5000B3CAB3CAB2CAB1CAB0CAAFCAADCAACCAA0
:102F6000ABCAAACAA9CAB7C0A8CAA6CAA5CAA4CACF
:102F7000B1C03EC23DC23CC23BC23AC239C2F0C13E
:102F800037C234C233C233C251C233C2A895F89497
:102F90006091B26B7091B36B789405DFEB01CF5DFC
:102FA000D040ECE9FBE60C2E0CDE6894E091E16980
:102FB000F0913070EF27E0FDE894D091AE6BC091B6
:102FC000AF6BC7FF05C0C095D195CF4FC7FDCFE709
:102FD000DD0FCC1FE2E8FBE6CDDD16F0B093B46B5D
:102FE00016F4B093B56BD091B06BC091B16BC7FFC5
:102FF00005C0C095D195CF4FC7FDCFE7DD0FCC1FE2
:10300000E8E8FBE6B7DD16F4B093B46B16F0B093C6
:10301000B56BA091B46BAB0FA795A093E669A253D3
:1030200008F4A0E0A093A76BA091B46BB091B56B2E
:10303000AB1BA058E4E9FBE60A2EC3DDC091886A09
:10304000C695E8E9FBE60C2EBCDDE091506AF091F4
:10305000526AEF1708F4EF2FE093536AE091536A36
:10306000E093546A80E0A0913470A093A306B0EC82
:10307000AB9FB091986BB11508F08160A09135704D
:10308000B0919C6BB25308F4B0E0BA1708F08460BA
:10309000A0913670B091E669BA1708F088600E9476
:1030A000902809F082608093A26B90911A70982BFF
:1030B00090931A70089520925168E2E5F8E6219203
:1030C0002192219221922192219221922192219268
:1030D000B4DD3CC10895E091296AE33019F099818B
:1030E0008A8103C090E089818F77EFB7F89480934D
:1030F000126A9093136AEFBF0895E881E4FBEE0F24
:10310000E0F9E6FBEF71E43010F4E6950DC0E45011
:10311000F0E08091197084FDE35C84FDFF4884FF3A
:10312000EE5C84FFFE44E081E7F9DDD1EF1385DD3D
:103130000FC103070C1015191E22272B3034393DFF
:1031400042464B4F54585D61666A6F73787EE981E1
:10315000CAD1EF1372DDFCC0E981C5D1FE27F0E0D2
:103160008A8190915268809352688927F82BE09168
:10317000296AE530C8F08B81909153688093536839
:103180008927F82BE63080F08C81909154688093E9
:1031900054688927F82BE73038F08D819091556875
:1031A000809355688927F82BF21147DDCFC0FF27A0
:1031B000E091146A8091156A8695EE1FE095EF7193
:1031C000888184FB880F80F99091526885D1809323
:1031D0005268F21132DDBEC0FF2788818295880FC8
:1031E00090915268E091146AEE0FE095E07E74D100
:1031F000809352688881880F829590915368E091FE
:10320000146AEE0FEE1FE095E17066D1809353686B
:10321000F21113DD9FC0FF278881880F90915368BA
:10322000E091156AE095EE7157D180935368F211E1
:1032300004DD90C0FF27E091156AE5FD08958981BE
:103240009091536840D180935368898190915468DC
:103250003ED180935468F211F0DC7CC0FF27E091EE
:10326000156AE5FD08958981909154682CD1809369
:1032700054688981909155682AD180935568F211DC
:10328000DCDC68C0FF27E091156AE6FD08958981BE
:103290009091556818D180935568898190915668AE
:1032A00016D180935668F211C8DC54C0FF27E09114
:1032B000156AE6FD089589819091566804D180933E
:1032C000566889819091576802D180935768F211AE
:1032D000B4DC40C0FF27E091156AE6FD08958981BE
:1032E00090915768F0D08093576889819091586881
:1032F000EED080935868F211A0DC2CC0FF27E0913B
:10330000156AE6FD0895898190915868DCD0809314
:103310005868898190915968DAD080935968F21180
:103320008CDC18C0FF27E091156AE6FD08958981BD
:1033300090915968C8D080935968898190915A6852
:10334000C6D080935A68F21178DC04C001D002C064
:103350004CD992C2809152688091536846D98CC2F0
:10336000EEEBF9E1AF81A83040F4EA0FF21DC8E0BE
:10337000DBE686E0CADB26970994089507C009C0FA
:103380000BC00EC028C029C02AC02BC0EEE1F0EE51
:103390001AC2E2E2F0EE17C2E6E2F0EE8CE114C2ED
:1033A000C091266AD9E6788569859A858B85E0E0A3
:1033B000F0E60F01DB010E94532CB92F0E94EF2B86
:1033C000F001A083E3950F0111F4A3E0FDC19395F3
:1033D000A1F76395EFCF8FEC06C08EE704C08CE7B2
:1033E00002C08CE700C0E0E0F0E6EEC1F8C125CCF9
:1033F0000895F7D8D1F432D021F482E00E943D2B19
:103400005ECB21968091296A853028F0E0E2F8E6CB
:1034100082E074DBA9F7F881E0912268F0932268DA
:10342000FE1719F0E395FE1759F70895E881E93082
:1034300008F00895F0E0E25EF54E099408C008C077
:1034400008C008C00895089508950895089508953E
:1034500034CB33CBE1E0E0935068EFCBF0914C6894
:10346000E0914D68EF2B0895E23060F10090057017
:10347000109001700118039400928E6800900470FF
:10348000109005700118039400928F68FE2FE034AD
:1034900008F0FFE300908E680F9E000C111CF09165
:1034A0000170F695F10DE03438F0EF5300908F681D
:1034B0000E9E000C111CF10DEF2FE7FDEFE7E2303F
:1034C00008F4E2E008958295880FE0EE05C0869545
:1034D00086958695EFE100C08E23E095E9238E2B3B
:1034E0009827F92B0895FE2F8091166A821108956E
:1034F000F0910F70F078EC99EF2780911970F0E857
:1035000080FDEF2780912268F091E169F07887FDD6
:10351000EF27E7FBEF77A8DFE7F9F0915168E09339
:1035200051680895529B05C0EEEEFFEDF6CB52991F
:10353000FBCFE6E0F0EEF1CBA881A3700E94522C05
:10354000B981CF93DF930E94EE2BDF91CF916894E6
:1035500009F4E89448F5F881EA81FC7039F0F43018
:1035600031F0FC3041F0E4FF14C00CC01DC0E6F0A7
:10357000AE17C1F019C0AE2F0E94F32BA9F4A0F42E
:10358000216010C0AE2F0E94F72B71F468F4216007
:1035900009C056F0E3FBA3DAAE230EF0EE27EA27CC
:1035A00009F002C00C94FE120895A881A3700E9435
:1035B000522CB9810E94EE2B21F408F0A6C1EA2F0B
:1035C000A7C198C1AA81B9810E94532CE881E370F8
:1035D000E093A96BBB810E94EE2BB9F4A093AA6B78
:1035E000B3950E94EE2B89F4A093AB6BB3950E9428
:1035F000EE2B59F4A093AC6BB3950E94EE2B29F4FB
:10360000A093AD6BC9EADBE685C174C1E89402C042
:10361000689400C089F40E949E2AE53068F0A88171
:10362000A3700E94522CB981AA810E94F22B29F426
:1036300018F42160EA2F6CC168C15CC1B9F50E9421
:103640009E2AE13198F1B981AA810E94532CE9EABE
:10365000FBE6A881A370A083AC81A183BD81B28366
:10366000BE81B383BF81B483BB810E94F32BF9F485
:10367000A093AA6BB395A091AB6B0E94F32BB9F406
:10368000A093AB6BB395A091AC6B0E94F32B79F434
:10369000A093AC6BB395A091AD6B0E94F32B39F462
:1036A000A093AD6B2160C9EADBE634C12EC122C113
:1036B0000E94AB2A78F0A0E00E94522CBCE10E944C
:1036C000EE2B49F4E881E0FBA5F90E94F32B19F4F5
:1036D000216035C11AC10EC1C9EEDAE6E0EFE99307
:1036E0000E94F116E993FE010E940117D193C19344
:1036F000B193A193C5EFDAE6E4E1F7EB86E00E942F
:103700007915CFEEDAE6EAE1F7EB86E00E9479156B
:1037100028D006C080004440FFCADFFFFFDB4E2AEE
:10372000F7E0E0910A0BEF230DC0E091006BF09100
:10373000016BEA953AF4FF0FF760FF77E0910A0B0F
:10374000EF2300C0E093006BF093016B0895F091BC
:103750004C68E0914D68EF2B0895E091FF6AEE23ED
:1037600008952092FF6A0895EBEFFAE6AF93A881DF
:10377000B081A083AB17A981B181A183AB07AA81D6
:10378000B281A283FD01AF9131F4FE1719F0F395D8
:10379000FE1709F40895E1DFE9F391C9CF93DF93B0
:1037A000AF93E9EEFAE6A991AF70B191BF70AB1794
:1037B00031F4A991B191AB1711F4EF3ED1F7AF916C
:1037C000DF91CF91089584E0C2E0DBE6A993A9934D
:1037D00089938FEF8993E993F993E89401C06894F2
:1037E00062E0C2E0DBE6FFE8E991E9919991899115
:1037F000A991B9910CD00BD00AD009D008D007D02C
:103800002B97E99399938993A993B9930895621596
:10381000920511F4299208958823A9F03AF00D90A9
:103820000992E025E0818A959A950895892F803242
:1038300008F08FE1E82FE5F9E9930090026BE025AD
:10384000E0816A950895E9938A956A95089500C084
:10385000CEE2DAE68FE2899380E0ADE2B0E703D012
:1038600002D0288208959D91E8E08395969508F40A
:103870008993EA95D1F70895E2E3E093916808957A
:10388000E0912D6AE395E33008F0E0E0E0932D6AE3
:10389000F0E0E45BF34E099402C012C01BC0E0915B
:1038A0009168EA95E7FDE0939168E0911970E5FF72
:1038B00005C0E0910D70EF73E068F1C0E0E0EFC08B
:1038C000E0911970E5FF03C0E0910E70EDC0E0914A
:1038D0000070EAC0E0911870E3FFD2CFF091566A11
:1038E000E0E0F2FDE160F3FDE260F1FDE460F5FD92
:1038F000E860DFC0CFD0C4CFCDD0E0D0C1CFCAD038
:10390000DFD0BECFC7D0DED0BBCFC4D0DDD0B8CFE4
:10391000DFD0B6CFE991DE01B0D0E85FE883ED916A
:10392000E983ED91EA83ED91EB83ED91EC83D5D0C2
:10393000A7CFE0E0F0E0A0E0B0E0FBD002C1EEE213
:10394000FAE6E081A191C081C211CC13EFE2E093CD
:103950002E6AE1EBFCE1EA0FF21D9CD08ED00995B6
:103960008FCFACC0BBC00EC00FC010C011C012C002
:1039700013C014C015C016C017C018C019C01AC093
:1039800019C018C019D029C068D073C05ED061C0FA
:103990001DD06BC016D065C01DD053C022D025C02D
:1039A00028D02BC02ED031C034D037C03AD03DC043
:1039B00040D043C083D082C0E091AC68F091AD6844
:1039C0009CC0E0919768E068F2E097C0E091AB6836
:1039D000F2E093C0E5E1F3E090C0E0918768F7E0A2
:1039E0008CC0E091986BF8E088C0E0910468F9E041
:1039F00084C0E091D76AFAE080C0E091D36AFBE02E
:103A00007CC0E091A368FCE078C0E091A468FDE090
:103A100074C0E091946BFEE070C0E091E469FFE057
:103A20006CC0E091AA68F0E168C0E0919268F1E1B1
:103A300064C0E091DC6AF2E160C0E091DD6AF3E12C
:103A40005CC0E0911A70F5E158C0E0919D68F8E122
:103A500054C0E0919E68F9E150C0E0919C6BFAE19E
:103A60004CC0E091A66BFBE148C0E091AE68F2E289
:103A700044C0E091A76BFEE240C0C0EFD9E60895D4
:103A8000A8EEB9E60895AAEEB9E60895A091E7690F
:103A9000B9E60895F8DFA093E769089552C0EDDF15
:103AA000F1E0F883E98354C0E8DFF2E0F883E983CA
:103AB0004FC0E3DFF3E0F883E9834AC0CFE04CC0B6
:103AC000C0EF4AC0CCE348C0CFE046D0CCE344C00E
:103AD000D4DFE0DF2882E98345C04DC0C8EFD9E6D6
:103AE000E4E0E883A0E8B8E6ED91EC83ED91EB83A8
:103AF000ED91EA83ED91E9833EC0E983FA83F7E033
:103B0000F88335C0C9EEDAE640C0CFEEDAE63DC054
:103B1000C5EFDAE63AC0C8E0DBE637C0EFE001C047
:103B2000ECE3EF9AADDFFFEF3FD0ED93F695E9F7C9
:103B3000B2CFA3DFE883F983AA83BB83E0E1EC8300
:103B40001FC0F091FD69FF0F30F1FF0F20F12CC075
:103B500097DFE3E022D0A9C999DFE1E01ED0CD9341
:103B60009ACF94DFE3E019D0A0D995CF8FDFE7E0BB
:103B700014D099D990CF87DFFFE316D090D98BCF9F
:103B800082DFFFE311D08DD986CF7ADFEF9AFFEF86
:103B90000BD083D980CFF0E007C0F091FD6902C05F
:103BA000FF1FC8F3E695E0F3F093FD6908958F9346
:103BB000E7E1FAE6A091296A8A2F8C0FB081A193E0
:103BC000BA17A081B991BA07B1938C13FACFC091FB
:103BD000266A8F910895E2E017C0E3E015C0E4E0A3
:103BE00013C0E5E011C0E6E00FC0E9E00DC0EAE077
:103BF0000BC0EEE009C0E3E0F4E007C0E4E0F7E06A
:103C000004C0E6E0F9E001C0FE2FAE1718F0FA1785
:103C100008F00895E0918C68F0918D683196E093FA
:103C20008C68F0938D68EF91EF9100C0E0E0AAC03E
:103C300027DEE5E2A7C0CFDFEFE1A4C0CCDF7FDE67
:103C4000E1E0A0C0CADF7BDEE6E29CC0C6DF77DE33
:103C5000E2E098C0D3DF73DEE3E094C0C0DF52DE61
:103C6000E4E090C0C8DF48DEE1E28CC0B4DF44DEAF
:103C7000E2E288C0B0DF46DEE3E284C0B4DFE5E024
:103C800081C0ADDFE6E07EC0ACDFE7E07BC0A5DF52
:103C900039DEE8E077C0A3DF35DEE9E073C09BDF03
:103CA0004EDEEAE06FC097DF4ADEEBE06BC093DFE9
:103CB00046DEECE067C091DF42DEEDE063C08DDF01
:103CC0003EDEEEE05FC089DF3ADEEFE05BC085DF1D
:103CD00036DEE0E157C081DF32DEE1E153C07DDF57
:103CE0002EDEE2E14FC079DF2ADEE3E14BC073DF75
:103CF000E0912B6AE395E211E0932B6AE4E144C082
:103D00006ADF00DEE5E13EC076DFFCDDE6E13AC0D9
:103D1000A43011F098F425C0E881E3FD05C0E2FF6E
:103D20001DC043DCE7E12EC0E2FF04C040DF6EDCD3
:103D3000E8E128C03CDF6CDCE9E124C0E881FE2F2B
:103D4000E370F3FD06C0F2FF09C04BDF3BDCEAE1A4
:103D500019C057DF2CDF72DCEBE114C0D3DDEDE1DD
:103D600011C0D0DDE4E20EC0E0E20CC044DFE0911F
:103D70002C6AE395E211E0932C6AE23009F4DCDB73
:103D8000ECE104C020922B6A20922C6AE093286A0E
:103D9000E091D069E093276A2062089522DFE4DC95
:103DA000D6DC39F4DADC29F4C0DC19F4ABDEE7E266
:103DB000E9CF3CCF16DFD8DCCADC39F4CEDC29F4FD
:103DC000B4DC19F49FDEE8E2DDCF30CF0ADFCCDCD3
:103DD0002DCF07DFC9DCBBDC31F4BFDC21F4A0DC74
:103DE00091DEEAE2CFCF22CF2197A930A0F0209236
:103DF000FE6AD4DC09F01ACFE1E0E093FE6AE093BA
:103E0000FF6AEE81EF3F41F0EE3F51F0EB3F89F06A
:103E100087DEEBE2B7CFFEDEE8DE7ADEECE2B2CFA1
:103E2000AA30C8F3EF81E33009F4E3DE77DEEDE298
:103E3000A9CFDBDE6ADEEEE2A5CF24D06CDEEFE2B6
:103E4000A1CF20D068DEE0E39DCFD1DE2197A6DCB4
:103E5000C1F4FE81EF81F06CF83E18F0F83F89F470
:103E6000F0E0F093116AE093106AE1E0E093FF6AFA
:103E70004CDEE1E0E093FF6AE4E0E0939068E1E388
:103E800081CFD6CEE091FE6AE2110895CCCEE3E375
:103E900079CFE091296AE350EB30F8F4E093296A96
:103EA000F0E0E059F04E0995D1F4E091296AA6EFCF
:103EB000BEEBAE0FB21DBC91CB0FAE2FAB1BA093D0
:103EC000296AC093266AD9E6E881E93040F4F0E037
:103ED000EF57F04E0995E2E355CF9CDEA7CEA8CE72
:103EE0001FC01CC01DC02DC019C025C02AC026C0BF
:103EF00022C016C023C00000000200040206040015
:103F0000060008C007C006C005C006C005C004C042
:103F100003C002C00EDD0895F8DC089518940895DA
:103F200098940895E8E4F8E621C0ECE4F8E61EC0B1
:103F3000EEE4F8E61BC0E0E4F8E610C0E4E4F8E6DE
:103F400005C0F3DFD1F0EEDFC1F0F2CFA581BD8176
:103F5000AB1799F4A481BC81AB1779F4A381BB8121
:103F6000AB1759F4A281BA81AB1739F4A181B98199
:103F7000AB1719F4A081B881AB1708950895C2ED6D
:103F8000D9E6A091D1692092286AE881E653F0E051
:103F9000F04E0994FFC014C113C112C111C110C168
:103FA0000FC10EC10DC10CC10BC10AC109C108C1AD
:103FB00007C106C105C104C103C102C101C100C1DD
:103FC000FFC0FEC0FDC0FCC0FBC0FAC0F9C0F8C015
:103FD000F7C0F6C0F5C0F4C0F3C0F2C0F1C0F0C045
:103FE000EFC0EEC0EDC0ECC0EBC0EAC0E9C0E8C075
:103FF000E7C0E6C0E5C0E4C0E3C0E2C0E1C0E0C0A5
:10400000DFC0DEC0DDC0DCC0DBC0DAC0D9C0D8C0D4
:10401000D7C0D6C0D5C0D4C0D3C0D2C0D1C0D0C004
:10402000CFC0CEC0CDC0CCC0CBC0CAC0C9C0C8C034
:10403000C7C0C6C0C5C0C4C0C3C0C2C0C1C0C0C064
:10404000BFC0BEC0BDC0BCC0BBC0BAC0B9C0B8C094
:10405000B7C0B6C0B5C0B4C0B3C0B2C0B1C0B0C0C4
:10406000AFC0AEC0ADC0ACC0ABC0AAC0A9C0A8C0F4
:10407000A7C0A6C0A0C09FC09EC09DC09CC09BC042
:104080009AC099C098C097C096C095C094C093C07C
:1040900092C091C0B0C0AFC0AEC0ADC0ACC0ABC0EC
:1040A000AAC0A9C0A8C0A7C0A6C0A5C0A4C0A3C0DC
:1040B000A2C0A1C0A0C09FC09EC09DC09CC09BC00C
:1040C0009AC099C098C097C096C095C094C093C03C
:1040D00092C091C090C08FC08EC08DC08CC08BC06C
:1040E0008AC089C088C087C086C085C084C083C09C
:1040F00082C081C080C07FC07EC07DC07CC07BC0CC
:104100007AC079C078C077C076C075C074C073C0FB
:1041100072C071C071C070C06FC06EC06DC06CC025
:104120006BC06AC069C068C067C066C065C064C053
:1041300063C062C061C060C05FC05EC05DC05CC083
:104140005BC05AC059C058C057C056C055C054C0B3
:1041500053C052C051C050C04FC04EC04DC04CC0E3
:104160004BC04AC01AC019C018C017C016C015C02D
:1041700014C013C012C011C010C00FC00EC00DC0BB
:104180000CC00BC00AC009C008C007C006C00DC0E3
:1041900009C00EC0A150219670C0A093296AC09397
:1041A000266ADFCDA15021962AC1A150219630C2A6
:1041B000A15021961CC1E0912B6AE33008F0D6CDC6
:1041C000EA9AE991A1506894F091126AFE13E8947A
:1041D000B091136AB211E894BF2BF091106AFE17E8
:1041E00039F4F091116AF7FD03C0B21128C045C03F
:1041F0000EF01ECD32C0B5CDEA9AE981F881A25009
:104200002296E03021F4F03C11F4EB9A5CC0B091BE
:10421000116ABF17B091106ABE0741F4E091126AAB
:10422000F091136AEF2BE2110AC027C0B091136A14
:10423000BF17B091126ABE0709F0FACC0EC0E09128
:104240001170EC67E093146AE0911270E160E09302
:10425000156AE1E0E093166A16C0EC9AE0911170DD
:10426000E095E378E093146AE0911270E095EE7FB8
:10427000E093156A2092166A06C02092146A209272
:10428000156A2092166AA093296AC093266AE09163
:10429000E569E395E093E569E881E295EF70ED5A11
:1042A000F0E0FE4D09942BC040C055C054C0C6CCB0
:1042B000C5CCC4CCC3CCF3CCF2CCF9CCF4CC71C01B
:1042C00070C026CD21CDA093296AC093266AEA98B2
:1042D000E881E295EF70E159F0E0FE4D0994A6CC3B
:1042E000A5CCA4CCA3CCA2CCA1CCA0CC9FCC9ECC62
:1042F0009DCC9CCC9BCC9ACC99CC0ACD05CDE99198
:10430000EF70EB57F0E0FE4D0994F1CCF9CC2CCDD9
:104310002BCD24CD23CD22CD21CD20CD1FCDAACC98
:10432000A9CC1CCD1BCD1ACDA1CCE991EF70E556DF
:10433000F0E0FE4D099412CD11CD94CC93CC0ECD6E
:104340000DCD0CCD0BCD0ACD09CD08CD07CD06CDB9
:1043500005CD04CD03CDE991EF71EF54F0E0FE4DB2
:104360000994FCCCFBCCFACCF9CCF8CCF7CCF6CC4D
:10437000F5CCF4CCF3CCF2CCF1CCF0CCEFCCEECC51
:10438000EDCCECCCEBCCEACCE9CCE8CCE7CCE6CC81
:10439000E5CCE4CCE3CCE2CCE1CC5CCC5FCC52CC41
:1043A00055CCE991EF71E952F0E0FE4D099473CCE0
:1043B00065CC67CC69CCD2CCD1CCD0CCCFCCCECC58
:1043C000CDCCCCCCCBCCCACCC9CCC8CCC7CCC6CC41
:1043D000C5CCC4CCC3CCC2CCC1CCC0CCBFCC73CCBC
:1043E00076CC79CC7CCC7FCC52CC65CC68CCA093FD
:1043F000296AC093266AE881E21118CC1CCCA093EC
:10440000296AC093266AE991E85FF0E0FD4D0994BE
:1044100014CD17CD0BCC0ACC09CC08CC07CC06CCDC
:1044200005CC04CC03CC02CC01CC00CCFFCBFECB22
:10443000FDCBFCCBFBCBFACBF9CBF8CBF7CBF6CB58
:10444000F5CBF4CBF3CBF2CBF1CBF0CBEFCBEECB88
:10445000EDCBECCBEBCBEACBE9CBE8CBE7CBE6CBB8
:10446000E5CBE4CBE3CBE2CBE1CBE0CBDFCBDECBE8
:10447000DDCBDCCBDBCBDACBD9CBD8CBD7CBD6CB18
:10448000D5CBD4CBD3CBD2CBD1CBD0CBCFCBCECB48
:10449000CDCBCCCBCBCBCACBC9CBC8CBC7CBC6CB78
:1044A000C5CBC4CBC3CBC2CBC1CBC0CBBFCBBECBA8
:1044B000BDCBBCCBBBCBBACBB9CBB8CBB7CBB6CBD8
:1044C000B5CBB4CBB3CBB2CBB1CBB0CBAFCBAECB08
:1044D000ADCBACCBABCBAACBA9CBA8CBA7CBA6CB38
:1044E000A5CBA4CBA3CBA2CBA1CBA0CB9FCB9ECB68
:1044F0009DCB9CCB9BCB9ACB99CB98CB97CB96CB98
:1045000095CB94CB93CB92CB91CB90CB8FCB8ECBC7
:104510008DCB8CCB8BCB8ACB89CB88CB87CB86CBF7
:1045200085CB84CB83CB82CB81CB80CB7FCB7ECB27
:104530007DCB7CCB7BCB7ACB79CB78CB77CB76CB57
:1045400075CB74CB73CB72CB71CB70CB6FCB6ECB87
:104550006DCB6CCB6BCB6ACB69CB68CB67CB66CBB7
:1045600065CB64CB63CB62CB61CB60CB5FCB5ECBE7
:104570005DCB5CCB5BCB5ACB59CB58CB57CB56CB17
:1045800055CB54CB53CB52CB51CB50CB4FCB4ECB47
:104590004DCB4CCB4BCB4ACB49CB48CB47CB46CB77
:1045A00045CB44CB43CB42CB41CB40CB3FCB3ECBA7
:1045B0001BCC1ACC19CC18CC17CC16CC15CC14CCDF
:1045C00013CC12CC11CC10CC0FCC0ECC0DCC0CCC0F
:1045D0003CCC3BCC3ACC39CC38CC37CC36CC35CCB7
:1045E00034CC33CC32CC31CC30CC2FCC2ECC2DCCE7
:1045F0001DCB1CCB1BCB1ACB19CB18CB17CB16CB97
:1046000015CB14CB13CB12CBC9CBD4CBDFCBE1CBA7
:10461000A093296AC093266AE991E03F08F406CB8B
:10462000EF70EB5EF0E0FC4D099431CCFFCAFECA9E
:10463000FDCAFCCAFBCAFACA2CCCF8CAF7CAF6CA29
:10464000F5CAF4CAF3CAF2CAF1CAE0E0E093CA6953
:104650002092FD690895E0918468E395E093846871
:104660002092FE6A0895FFFFFFFFFFFFFFFFFFFF9D
:1048000026C04AC04CC055C05EC065C06CC07DC1EA
:10481000A4C1D8C1E6C108C20FC21DC225C22DC2A3
:1048200035C240C26CC086C0C3C00FC124C141C1E3
:1048300042C143C144C145C146C147C148C149C144
:104840004AC14BC14CC14DC14EC14FC150C1E2E044
:10485000E093110B332420C0E0918868F0918968BF
:104860003196E0938868F09389680AC0E0918A687D
:10487000F0918B683196E0938A68F0938B6800C062
:10488000EADE00C0332403C0E3E03E2E00C0E3981C
:10489000E998ED98E1E035C20E94422B00C0ED9905
:1048A000F1CF86F73394E8E4F0EE0E948D16E3E052
:1048B00028C2ED99E7CF36F73394E0E6F0EE0E9498
:1048C0008D16E4E01EC2ED99DDCFE6F633940E942A
:1048D000921AE5E016C2ED99D5CFA6F633940E9460
:1048E000971AE6E00EC2ED99CDCF2EF4339409F479
:1048F0003A94E6E006C2E32DE43108F4C3CF3092E7
:10490000D069E091C869F091C969F695E795F69587
:10491000E795F695E795E21DE001FBEAEF9F10921F
:10492000006A0E01E2EDF9E6CFE02192CA95E9F7BF
:10493000E3E1E7C10EF0ED99A5CFE091C869F091F0
:10494000C969F695E795F695E795F695E795E21D21
:10495000E001FBEAEF9F1092016A0E01EE27529BE5
:10496000EFEFF091E169E093E169FE13EE9AE998C7
:10497000EA98EF98EB98EC982092D1692092CF6951
:10498000E0918568E395E43650F0E0918468F09119
:104990008668E0938668EF1BE0938768E0E0E09329
:1049A0008568E091E369E395E093E369E7E1A9C1F4
:1049B000ED9952CFE091D169EF3008F057CFF2ED89
:1049C000EF0FF9E6F21D3192E25DE093D169E091DB
:1049D000CF69E325E093CF692EF509F047CFE3E0F7
:1049E000E093110BE0E8F8E6A081B1811196A08375
:1049F000B183A281B381A21DB21DA283B383E091D2
:104A0000C869F091C969F695E795F695E795F69529
:104A1000E795E21DE001FBEAEF9F1092046A0E01A8
:104A2000E6E16FC1E091C869F091C969F695E79533
:104A3000F695E795F695E795E21DE001FBEAEF9F15
:104A40001092026A0E01E5E15CC1ED9B0EF404CF09
:104A5000E091C869F091C969F695E795F695E795F3
:104A6000F695E795E21DE001FBEAEF9F1092036ADD
:104A70000E01E7E146C1E2E0E093110B2092C66926
:104A80002092C769ED9B0EF0E7CEE091C869F091E6
:104A9000C969F695E795F695E795F695E795E21DD0
:104AA000E001FBEAEF9F1092056A0E0168DAE7E089
:104AB00028C1E8E11EC0E9E121C0EAE11AC0EBE14A
:104AC0001DC0ECE116C0EDE119C0EEE112C0EFE14E
:104AD00015C0E0E20EC0E1E211C0E2E20AC0E3E28A
:104AE0000DC0E4E206C0E5E209C0E6E202C0E4E18E
:104AF00005C0ED99B1CE330C30F803C11EF030FC87
:104B0000ABCEFFC030FEA8CEFCC0E39AECECFFEDCC
:104B10000E948D160EF0B6CEC091FD69D09119702D
:104B2000EB99D860D3FFC070D0911870EB99D26028
:104B3000E0919168EC3F08F0DB7FD2FDDE7FEA99DF
:104B4000D0FFCC7FEC9BD1FFC370EF99CFEFC09328
:104B5000FD69529BB39998CE00C0E99AD0912A7012
:104B6000C0910A0BCD23D0912970CD0FCF70C09387
:104B7000FE69C15BDCE0F001CD9F00921C0B10923E
:104B80001D0B0F01E091C869F091C969F695E79591
:104B9000F695E795F695E795E21DE001FBEAEF9FB4
:104BA0001092066A0E01E0E0E093110BE091FD69BE
:104BB000E0FF06C0C090E869E89AEDE0E0931301D9
:104BC000E9E09FC0F091FD69E091E969F1FDE093B2
:104BD0004208E8E6F1E0E0931C0BF0931D0BEAE0DD
:104BE00090C0D0912C70C0910A0BCD23D0912B7026
:104BF000CD0FCF70C093FF69CE5AD091FE69CD1B07
:104C0000DCE0F001CD9F00921C0B10921D0B0F01F8
:104C1000E091FD69E2FF06C0C090EA69E89AEDE024
:104C2000E0931301EBE06DC0E0EFF0E0E0931C0BCC
:104C3000F0931D0BECE065C0F091FD69E091EB692C
:104C4000F3FDE0934208E0EEF1E0E0931C0BF093FB
:104C50001D0BEDE056C0F091FD69E091EC69F4FDAB
:104C6000E0934208EEE04DC0F091FD69E091ED69FE
:104C7000F5FDE0934208EFE044C0F091FD69E0915A
:104C8000EE69F6FDE0934208E0E13BC0F091FD697A
:104C9000E091EF69F7FDE0934208E2E0E093110B49
:104CA000E1E12FC0E001E091C669F091C769F69596
:104CB000E795F695E795F695E795E21DFBEAEF9FF8
:104CC000E12DEC51F091FF69EF0FE093076A0E01BF
:104CD000F091FD69FC7F91F0E0E0FAE6C191C783B5
:104CE000C191C783C191C783C191C783C191C78354
:104CF000C191C783C191C783C191C7832092FD69C8
:104D0000C1CDE093CA69AF91BF91CF91DF91EF918F
:104D1000EFBFEF91FF9118950895EEE0FBE6A4E850
:104D2000B3EDD0E0C1E0D583C083B183A2832682F6
:104D30002782208624823A96D395DA30A1F70B9801
:104D40000A986B986C98CAC113D0ED91FD91FC83C1
:104D5000FD91F887FD91F987A3D1EFB7E0FBD2D29F
:104D6000E885E13108F0E0E0EB55F0E0F74D09941B
:104D7000AD81AA0FAA0FB0E0AC57BF480895C2E7B3
:104D8000DBE680915C6A882311F0C2E7DBE6CF9313
:104D9000DF930E94A12EDF91CF912A97D5DF8E81DC
:104DA0009F8196FB9827907409F0D1D0888181501B
:104DB000E1F008F088838D81882349F703D057D12B
:104DC00065D18CC1E0915C6AE15070F090E00AF42A
:104DD00097E0CCE7DBE680E00E948F152097E0307B
:104DE00018F4CE0F97E098830895F981EA818191B4
:104DF0008C3008F080E090E08C5F984D8F939F930B
:104E00000895F983EA83D7CF0BC00DC011C02CC021
:104E100036C03FC042C048C055C05DC063C069C015
:104E20000B807CD0C8CF019079D011901882E9CF47
:104E30000E94C8279F938F938191982F92958F708E
:104E40009F70092E081A03941F90109C180E65D0AD
:104E50008191982F92958F709F70092E081A1F903C
:104E6000109C180E1882CDCF0E94C82701909191F6
:104E7000091A0394182E109C190E4FD0B8CF0E9417
:104E8000C82701909191091A182E109C190E1882AA
:104E9000B8CF91918191FC01AACF919181910F019D
:104EA000FC018D810995A3CF0E94C82701909191A3
:104EB000981708F4A6CF0394102C100C100CE119CD
:104EC000F20995CFE89410800B80101460F021F463
:104ED0003196319696CF689411900B800114C8F7E3
:104EE000039415C0689411900B80101490F70A94E5
:104EF0000EC00E94C82701909191091A0394182EA0
:104F0000109C190E0B80101408F407D070CF06D037
:104F1000119018820EF475CF4ECF012C0B82A2E7B0
:104F2000BBE61D80A10DB21D0C920895F4EDEEEDCF
:104F300003C0F5EDE8E000C08C81853108F080E029
:104F4000880FE80FF21D91918191FC0108958E81E7
:104F500086F98E8393ED86E816F493ED8AE89983BB
:104F60008A8391E09883089513D08F77089510C0B5
:104F70000FD009F4917008950BD009F4937008953F
:104F800007D009F49770089503D009F49F7008952D
:104F900080911A0B90910A0B89270895E2E7FBE6AE
:104FA000D091D26ADF70D395D4FDDA95C091556A5D
:104FB000C211D061189449F4C191CD17C091010A72
:104FC000CF7E08F0C061C093010A189449F4C191E2
:104FD000CD17C091010ACB7F08F0C460C093010ACD
:104FE000189449F4C191CD17C091010ACD7F08F002
:104FF000C260C093010A189449F4C191CD17C091C1
:10500000010ACE7F08F0C160C093010A189431F400
:10501000C191CD1708F06D9A08F46D98189431F489
:10502000C191CD1708F04F9A08F44F98189431F4B5
:10503000C191CD1708F04F9A08F44F98189431F4A5
:10504000C191CD1708F04F9A08F44F98189431F495
:10505000C191CD1708F04F9A08F44F98189431F485
:10506000C191CD1708F04F9A08F44F980895ACE617
:10507000B0E706D08093596A03D08093586A0895A8
:1050800081E0EE910DD0881FE0F70895ACE6B0E71F
:1050900080E8ED9105D08795E0F780935A6A0895EE
:1050A000E7FBEF77E53410F0EE2712C0EF771E2E06
:1050B000E770F0E0EC52FF420080169416941694CC
:1050C000E2E5F8E6E10DF21DE0810EF4E025E021D5
:1050D000E19508950102040810204080ECE7F0E714
:1050E000A2E4B0EEDAE08191CD91C2118883E2387A
:1050F000D1F708951FB6F095F8940090566A0F22E4
:105100000E2A0092566A1FBE08951FB6F095F894B5
:105110000090576A0F220E2A0092576A1FBE089508
:10512000E091556AEE230895E0913A70E093850688
:10513000FFB7F894E091556AE211EA95E093556A59
:10514000FFBFE1E0E0938606089512C00FC01AC0C9
:1051500022C02AC032C03AC040C048C050C07AC045
:105160007BC085C063C06CC058C051C00EF4F3C092
:1051700007C136F483FD04C182FDEDC080FF90FFBE
:10518000FFC0E9C036F483FDFBC082FDE4C080FFB0
:1051900090FFF6C0E0C036F483FDF2C082FDDBC0B4
:1051A00081FF90FDEDC0D7C036F483FDD4C082FFEF
:1051B00080FDE6C090FDE4C0CEC036F483FDCBC0D8
:1051C00082FF81FDDDC090FFDBC0C5C0EEF783FF2D
:1051D00091FDC7C082FFC5C0B5C036F483FF91FD05
:1051E000C0C082FFBEC090FFCBC0ACC0EEF783FF53
:1051F00091FDB7C082FFB5C090FDC2C0A3C0EEF75D
:1052000083FF82FFAEC091FD08959CD0B0C01EF414
:1052100082FD089583FDB4C09EC07EF782FD08958F
:10522000B3E0B823B21183FDABC095C036F782FD61
:105230000895B3E0B823B21183FDA2C089D09DC008
:10524000E6F682FD0895B3E0B823B21183FD98C05D
:1052500076D08DC001D00BC06894E0E1B4FD12C0DF
:10526000B6FD15C081FD089580FF11C00BC0E89404
:10527000E0E2B5FD07C0B7FD11C080FD089581FFD4
:105280000DC000C06091B5707091B67013C0E0E4BD
:10529000B6FD0BC080FF90FF089507C0E0E8B7FDA2
:1052A00004C081FF90FD089500C06091B3707091BB
:1052B000B47000C0B0FD0BC0B3FF089583FF91FD33
:1052C0000895FE2F0E9493290E942F1527C0B1FD3B
:1052D0000FC00E94441509F491FD08953CD06295D9
:1052E0007295EFB7E894E6FF68940E942F1516C0F8
:1052F0000E94441511F491FFB3FD089541D00E941E
:105300002D1509C08091586A9091566AA985B0916F
:105310005B6AB3F90895E0E0FFE305C0E0915B6AE2
:105320000894EE1FF3E0EF23B0915B6AF095BF2382
:10533000BE2BE0935B6A089517DE69F0089517DECF
:1053400051F0089515DE39F0089516DE21F0089524
:1053500017DE09F00895E0E4EF83089505DE81F09B
:10536000089505DE69F0089503DE51F0089504DE26
:1053700039F0089505DE21F0089506DE09F008955C
:105380002F82089500000627990006279600010045
:105390000000010F010001000000010201010401F1
:1053A000080F010001040108000100000200810251
:1053B000108102FF210703A002FE810701FF000008
:1053C0000200F10210F102FF210703A00000010119
:1053D000140211F102FF21070280000008010104FC
:1053E0003010010F01000801010430100104080809
:1053F0000F01000001000000090F01045020070206
:10540000FF0001000000080401000800010001087D
:10541000010253110801010406010704C004C04041
:10542000090F010702FF0000010F010101010450F3
:1054300020046010090F010702FF00000B030104A4
:1054400080400A00010702FF0000080401010F0369
:105450000104010801010101080705FF000008001F
:105460000100010F0A01000A0702FF000200F10219
:10547000FFB90200B90702FF000001000100010F9F
:10548000010100130702FF00010F01010001010FDC
:10549000010100110704FF00010F01010001010FCC
:1054A00001010001010F0101000F0706FF000100CB
:1054B0000100010001080F010801010702FF0000BF
:1054C000010011080F010801010702FF0000080098
:1054D0000100010F14010000000001000000D38E44
:1054E000D392D39AD3ACD3C0D3CED3DCD3E6D3F804
:1054F000D406D40ED428D44AD462D46CD47ED488B2
:10550000D498D4B2D4C0D4D2D38ED396D3A4D3F467
:10551000D3F4D3F4D3F4D3F4D402D40AD43CD43C9B
:10552000D45ED47AD47AD4AED4AED4AED4CED4CEE3
:10553000D4DA20925D6A20925E6A089504D0FE2F2C
:10554000E0E2EF1B0895E0915E6AF0915D6AEF1B67
:1055500008F4E1950895E0915E6AF0915D6A88949F
:10556000EF1308940895C0915E6AC15AD0E0D549FE
:10557000B993E993F993A993CF55C03208F0CC279A
:10558000C0935E6A0895C0915D6AC15AD0E0D54962
:10559000B991E991F991A991CF55C03208F0CC2782
:1055A000C0935D6A089590E3889410C0A881A823F1
:1055B000A81711F492E106C0A881A823A817B1F397
:1055C00093E100C0A881A817A9F00894A091021047
:1055D000A1FDFCCFA0FDFACFADE9A4BF90930010D0
:1055E00008F48993A4BFA1E0A0930010A091021039
:1055F000A1FDFCCF089599D08AD009D00E94F5165C
:10560000E0934D6AF0934E6A2092486A089582E0D2
:1056100010904E6800904F68F0914C68E0914D6892
:10562000EF01CD2BD9F4E0911070F4E6EF9FF0E09C
:10563000E211F0ECE0910F70EF770E0E121C1F2AB2
:1056400081E0E0910070EF77F0E0C0911970C5FF44
:1056500005C0F0910D70E0910E70F06CE093106A4F
:10566000F093116A0092126A1092136A0128E0E026
:10567000F0E20210EF2F3EDD00C0CEEFD5E18093C7
:1056800090689ACF19D1E091486A2092486AEE302A
:1056900020F4F0E0E35BF44D099408950CC00DC0D4
:1056A0000EC00FC010C0089508950FC01EC027C0BF
:1056B00010C013C016C00C945D150C945F150C94AB
:1056C00063150C946D150C946815F8946CDF0C94AC
:1056D0005D15A0E0B3E48CE15CC0A0E0B8E988E22D
:1056E00058C0A2E0B0E080E854C0F89481E0C5DF83
:1056F000E6EFF6ED3DC00001111213141D00E4E0C9
:10570000F7ED36C000020506090A37383900D4D053
:1057100004D0D6D002D0D8D000C0B0E078D0B395B5
:10572000A0914B6ABA17D1F70895E091FF15E030C8
:1057300069F0EF3F09F037DFBFD009D0C1D007D003
:10574000C3D005D0CFEFD5E180E036DF0895B0E0DB
:10575000A89506D0B395A0914B6ABA17D1F70895D2
:105760003AD028F4D091496ACE2F8A2F1FCF0895BE
:10577000F894A191EF93FF9395D0A895FF91EF91A5
:10578000B191B15010F40C945D15EF93FF93E8DFE5
:10579000F5CFF8948F93BF9385D0A895BF918F9143
:1057A000B3958A9509F40C945D158F93BF93D8DF58
:1057B000F5CFE091496AE431EEE0EB0751F0E0917A
:1057C0000B70F0910C70EF1721F0EF91EF9198941E
:1057D0000895189408954AD033960994F0DF46D07E
:1057E0003196099426F0E5DF41D032960994E1DF45
:1057F000AF93F4DFEF91E3FB0E946F15E095AE23CA
:10580000E0950EF0EE27AE2B31D0329609942ED0D3
:1058100030960994A0E027C0EA81A98121C0EA81DD
:10582000F091496AA081F0914A6AA08319C0EA8187
:10583000F0914A6AA08114C0EA81F0914A6AB0915D
:10584000496A91DE0DC0E981FA81A08109C0E98130
:10585000FA81A08305C00F92C895A02D0F9000C0BB
:10586000189408940895189488940895CB2FD09193
:105870004B6ACD1778F4D0E0CC0FDD1FCC0FDD1FC5
:10588000F0914C6ADF0FE881E43149F0F0E0E45C2C
:10589000FF4C0895C0E0D6EEECE3F0E30895E98113
:1058A000FA810895B0E0B03099F4A03029F0A13029
:1058B00039F0A23049F00CC0A4EDB2EEF0E00BC01C
:1058C000AEE7B6EEF0E007C0A1E0B8EEF1E003C04D
:1058D000A0E0B2EEF0E0A0934B6AB0934C6AFC5E9D
:1058E000F093496AF45AF0934A6A089503C007C0D6
:1058F00009C012C0A0910014A0930070B1CFA09174
:105900000070AECFAA2339F032F0E0E0F0E7B091BA
:10591000496A29DEA5CF7ECFE0E0A3E0A1CF7ACF10
:1059200002C003C077CFADE09BCF0E94F11219F403
:10593000A093486A95CF6ECF03C007C009C015C0B9
:10594000A0910B14A0930B708BCFA0910B7088CFFC
:10595000AF3F11F4A0910C70A03F30F4EBE0F0E702
:10596000B091496A00DE7CCF55CFEBE0A1E078CF63
:1059700003C007C009C011C0A0910C14A0930C7003
:105980006FCFA0910C706CCFA03F30F4ECE0F0E74B
:10599000B091496AE8DD64CF3DCFECE0A1E060CF93
:1059A00039CF06C037CF36CF35CF05C033CF32CF52
:1059B000E1E0F1E950CFE0E0F1E94DCF0895D7E81B
:1059C00015C216D2C5D114D2E0910210E1FDFACF72
:1059D000C2DDC0F7D8DDC081CA17B1F3A083FB2FA9
:1059E000CDE9D3E1C4BFD0930010A083D1E0C4BF00
:1059F000D0930010D1E0D0930410D0930310E2CFE5
:105A000084E690E00E94E02EFBCF80E390E00E94CD
:105A1000E02E0E94BF26F9CFEBD10E947D170E9495
:105A20005C1296D1F9CF88EE93E00E94E02E3CD232
:105A30000E944116FCCF0C94CE270C9403140C94B6
:105A40000D15E0919168E7FF05C0EC3F30F4E0915F
:105A50000A0BEF73EA95E093916808950E949428E9
:105A60000E946F170C94CE140C947017FEEDEEEF9D
:105A7000DAE6C4E982E10E94791514D037D03FD02C
:105A800047D04FD057D05FD067D06FD01127222793
:105A9000D9E0C9E9C093D06AD093D16A08957894C7
:105AA0000C94592DE4E9FAE6E093CD6AF093CE6ABE
:105AB00008950E94DF2C2092D46A2092D56A209209
:105AC000D66A1D7FE091D46AF091D56AC091D66AFA
:105AD0003196C21D11FDEFCF2223D1F3E093D46A9A
:105AE000F093D56AC093D66A33D1ECCFEDE7FDE2EF
:105AF000E0933F69F0933E6908950C94E12CE6E849
:105B0000FDE2E0935F69F0935E6908950C94002DC7
:105B1000EFE8FDE2E0937F69F0937E6908950C94CD
:105B2000052DE8E9FDE2E0938169F093806908952D
:105B3000A3E924C0E1EAFDE2E0938369F09382697E
:105B40000895A4E91BC0EAEAFDE2E093A369F0939B
:105B5000A26908950C940C2DE3EBFDE2E093A56996
:105B6000F093A4690895A6E909C0ECEBFDE2E09387
:105B7000C569F093C46908950C94132D0C942717EC
:105B800010FD82C0F093DF6AFFB7F093DE6A116008
:105B9000E093E06AD093E16AC093E26AB093E36A6B
:105BA000A093E46A9093E56A8093E66A1092E76AAC
:105BB0000092E86AC091D26AC395C093D26A09F490
:105BC0001860CF7009F41460C0FD14C01061C0915A
:105BD000D06AD091D16AC15015F41062C97F10F417
:105BE0001064C979D04010F41068D970C093D06A9D
:105BF000D093D16A17FD58D079D00E941B2D14FD87
:105C00000E941D2D12FD0E941F2D16FD0E94212DA8
:105C100013FD0E942E2D17FD0E94342D14FF1BC072
:105C2000DAE6CAEAA1E0E881F981319788F071F4F7
:105C30002A2BE883F983EA81FB81FE2B49F0FB8163
:105C40000180A0950A22A095018202C0E883F98311
:105C50002496AA0F41F70090E86A1090E76A8091B5
:105C6000E66A9091E56AA091E46AB091E36AC09116
:105C7000E26AD091E16AE091E06A1270F091DE6A26
:105C8000FFBFF091DF6A0895F894E1E0F1E00E942F
:105C90008C2FFFEF3197F1F7E0E0F1E00E948C2FBD
:105CA000F0E43197F1F7F0CFE091D56AF091D66A40
:105CB000EE0FFF1FEBE8FE9F000C111CE4E6E1195C
:105CC000E093D36A1260C091D86AD091D96AC09328
:105CD000DA6AD093DB6AD695C795D695C795C093F7
:105CE000D76A2092D96A2092D86A0895E091D26A40
:105CF000EF70E093CF6AEE0FF0E0EF57F14D0994AB
:105D000008950C94802E0C94802E0C94802E0C946C
:105D1000802E0C94802E0C94802E0C94802E0C944B
:105D2000802E0C94802E0C94802E0C94802E0C943B
:105D3000802E0C94802E0C94802E0C94802E0C942B
:105D4000802EF091CA6AFF0F11F02F1708F4089502
:105D5000E091D86AF091D96A3196E093D86AF093CD
:105D6000D96AC091CD6AD091CE6AEDB7FEB7E993FA
:105D7000F883E0E2F22FC0E8FF0F30F019F0C6958B
:105D8000E450D1F7CC27EE27C093CA6AE093CC6ADF
:105D9000E695E093CB6ADAE6C4E9CE0FD21DC09354
:105DA000CD6AD093CE6AE991F881CFB7F894EDBF70
:105DB000FEBFCFBF089591E0899FC00101C0992720
:105DC000C6EADAE6B091CC6ACB0FD21DBFB7F89421
:105DD00088839983D091CA6AD0952D23BFBFB8CF4D
:105DE00007D0B6CF03D0B4CFD091CA6A2D2B089577
:105DF000D091CA6AD0952D230895208221820895DA
:105E0000689401C0E894D091CA6ABFB7F894C08181
:105E1000CC2321F0CE7FC083BFBF0895C181CD2B9D
:105E2000C183BFBF0EF0DCCFCBCFBFB7F894C19119
:105E3000D081DD2321F4C160C293BFBF08952082C9
:105E40002292BFBF0DC0BFB7F894D081D260D1936A
:105E5000D081DD2311F4BFBF08952082BFBF00C0F1
:105E6000E6EAFAE6CD2F3496CC0F41F0E0F7F8944D
:105E70002192219221922192BFBFF6CFB7CF2082EB
:105E80000895BFB7F894A081AE7FA083BFBF0895E7
:105E9000F8DFB8CFE1E0F1E00E948C2F0895E0E058
:105EA000F1E00E948C2F0895C6EBDBE6EAEEFEEDF2
:105EB0000C2E9FEFA191B191BF3F81F011968FEF12
:105EC00083951D901120E1F3821183958993981792
:105ED00088F38211982F82110C2EECCF9093DC6AFC
:105EE000C02DC85BC093DD6A0895006920694069D0
:105EF0006069806982698469A469A669FFFF1F6976
:105F00003D695D697D697F698169A169A369C3692B
:105F10000895E2E0F2E000C0EF23F0950090A06B5E
:105F20000F22E02906C0E0E004C0EFEF02C0E1E08C
:105F300000C0E093A06B00C0E091A06B0C94FB1636
:105F4000EF23F0950090A16B0F22E02908C0E0E05C
:105F500006C0E5E504C0EFEF02C0E3E000C0E09357
:105F6000A16B00C0E091A16B0C94F916310B0000FD
:105F7000010701310080856A000100404031008046
:105F800000000002310B0000010701310083856A27
:105F9000000100404031008300000002310B00008E
:105FA000010107310080856A000100404031008016
:105FB00000000002310B0000010107310083856AF7
:105FC000000100404031008300000002110B00007E
:105FD000011140110182876A0001014240110081D4
:105FE000B26B00010040401100810000000231034B
:105FF0000000010010310080AE6B00010040403114
:106000000080000000063103000001100031008014
:10601000B06B0001004040310080000000064001EC
:10602000DB4EFF000000437573746F6D0000E001EC
:1060300011FFFFFFFFFFFFFFFFFFFFFFFFFFFFFF5E
:10604000FFFF292C2A280000110300000102401143
:1060500000834F6A000100404011008300000002ED
:1060600011030000010240110083516A0001004049
:106070004011008300000002CDCBCCCBCBCBCACBF0
